{
  "contractName": "NFTContract",
  "abi": [
    {
      "inputs": [],
      "stateMutability": "nonpayable",
      "type": "constructor"
    },
    {
      "anonymous": false,
      "inputs": [
        {
          "indexed": true,
          "internalType": "address",
          "name": "owner",
          "type": "address"
        },
        {
          "indexed": true,
          "internalType": "address",
          "name": "approved",
          "type": "address"
        },
        {
          "indexed": true,
          "internalType": "uint256",
          "name": "tokenId",
          "type": "uint256"
        }
      ],
      "name": "Approval",
      "type": "event"
    },
    {
      "anonymous": false,
      "inputs": [
        {
          "indexed": true,
          "internalType": "address",
          "name": "owner",
          "type": "address"
        },
        {
          "indexed": true,
          "internalType": "address",
          "name": "operator",
          "type": "address"
        },
        {
          "indexed": false,
          "internalType": "bool",
          "name": "approved",
          "type": "bool"
        }
      ],
      "name": "ApprovalForAll",
      "type": "event"
    },
    {
      "anonymous": false,
      "inputs": [
        {
          "indexed": true,
          "internalType": "address",
          "name": "from",
          "type": "address"
        },
        {
          "indexed": true,
          "internalType": "address",
          "name": "to",
          "type": "address"
        },
        {
          "indexed": true,
          "internalType": "uint256",
          "name": "tokenId",
          "type": "uint256"
        }
      ],
      "name": "Transfer",
      "type": "event"
    },
    {
      "inputs": [
        {
          "internalType": "address",
          "name": "to",
          "type": "address"
        },
        {
          "internalType": "uint256",
          "name": "tokenId",
          "type": "uint256"
        }
      ],
      "name": "approve",
      "outputs": [],
      "stateMutability": "nonpayable",
      "type": "function"
    },
    {
      "inputs": [
        {
          "internalType": "address",
          "name": "owner",
          "type": "address"
        }
      ],
      "name": "balanceOf",
      "outputs": [
        {
          "internalType": "uint256",
          "name": "",
          "type": "uint256"
        }
      ],
      "stateMutability": "view",
      "type": "function",
      "constant": true
    },
    {
      "inputs": [
        {
          "internalType": "uint256",
          "name": "tokenId",
          "type": "uint256"
        }
      ],
      "name": "getApproved",
      "outputs": [
        {
          "internalType": "address",
          "name": "",
          "type": "address"
        }
      ],
      "stateMutability": "view",
      "type": "function",
      "constant": true
    },
    {
      "inputs": [
        {
          "internalType": "address",
          "name": "owner",
          "type": "address"
        },
        {
          "internalType": "address",
          "name": "operator",
          "type": "address"
        }
      ],
      "name": "isApprovedForAll",
      "outputs": [
        {
          "internalType": "bool",
          "name": "",
          "type": "bool"
        }
      ],
      "stateMutability": "view",
      "type": "function",
      "constant": true
    },
    {
      "inputs": [],
      "name": "name",
      "outputs": [
        {
          "internalType": "string",
          "name": "",
          "type": "string"
        }
      ],
      "stateMutability": "view",
      "type": "function",
      "constant": true
    },
    {
      "inputs": [
        {
          "internalType": "uint256",
          "name": "tokenId",
          "type": "uint256"
        }
      ],
      "name": "ownerOf",
      "outputs": [
        {
          "internalType": "address",
          "name": "",
          "type": "address"
        }
      ],
      "stateMutability": "view",
      "type": "function",
      "constant": true
    },
    {
      "inputs": [
        {
          "internalType": "address",
          "name": "from",
          "type": "address"
        },
        {
          "internalType": "address",
          "name": "to",
          "type": "address"
        },
        {
          "internalType": "uint256",
          "name": "tokenId",
          "type": "uint256"
        }
      ],
      "name": "safeTransferFrom",
      "outputs": [],
      "stateMutability": "nonpayable",
      "type": "function"
    },
    {
      "inputs": [
        {
          "internalType": "address",
          "name": "from",
          "type": "address"
        },
        {
          "internalType": "address",
          "name": "to",
          "type": "address"
        },
        {
          "internalType": "uint256",
          "name": "tokenId",
          "type": "uint256"
        },
        {
          "internalType": "bytes",
          "name": "_data",
          "type": "bytes"
        }
      ],
      "name": "safeTransferFrom",
      "outputs": [],
      "stateMutability": "nonpayable",
      "type": "function"
    },
    {
      "inputs": [
        {
          "internalType": "address",
          "name": "operator",
          "type": "address"
        },
        {
          "internalType": "bool",
          "name": "approved",
          "type": "bool"
        }
      ],
      "name": "setApprovalForAll",
      "outputs": [],
      "stateMutability": "nonpayable",
      "type": "function"
    },
    {
      "inputs": [
        {
          "internalType": "bytes4",
          "name": "interfaceId",
          "type": "bytes4"
        }
      ],
      "name": "supportsInterface",
      "outputs": [
        {
          "internalType": "bool",
          "name": "",
          "type": "bool"
        }
      ],
      "stateMutability": "view",
      "type": "function",
      "constant": true
    },
    {
      "inputs": [],
      "name": "symbol",
      "outputs": [
        {
          "internalType": "string",
          "name": "",
          "type": "string"
        }
      ],
      "stateMutability": "view",
      "type": "function",
      "constant": true
    },
    {
      "inputs": [
        {
          "internalType": "address",
          "name": "from",
          "type": "address"
        },
        {
          "internalType": "address",
          "name": "to",
          "type": "address"
        },
        {
          "internalType": "uint256",
          "name": "tokenId",
          "type": "uint256"
        }
      ],
      "name": "transferFrom",
      "outputs": [],
      "stateMutability": "nonpayable",
      "type": "function"
    },
    {
      "inputs": [
        {
          "internalType": "string",
          "name": "tokenURI",
          "type": "string"
        }
      ],
      "name": "mintNFT",
      "outputs": [
        {
          "internalType": "uint256",
          "name": "",
          "type": "uint256"
        }
      ],
      "stateMutability": "nonpayable",
      "type": "function"
    },
    {
      "inputs": [
        {
          "internalType": "uint256",
          "name": "tokenId",
          "type": "uint256"
        }
      ],
      "name": "tokenURI",
      "outputs": [
        {
          "internalType": "string",
          "name": "",
          "type": "string"
        }
      ],
      "stateMutability": "view",
      "type": "function",
      "constant": true
    }
  ],
  "bytecode": "0x60806040523480156200001157600080fd5b506040518060400160405280600b81526020017f4e4654436f6e74726163740000000000000000000000000000000000000000008152506040518060400160405280600481526020017f4e46544300000000000000000000000000000000000000000000000000000000815250816000908051906020019062000096929190620000b8565b508060019080519060200190620000af929190620000b8565b505050620001cd565b828054620000c69062000168565b90600052602060002090601f016020900481019282620000ea576000855562000136565b82601f106200010557805160ff191683800117855562000136565b8280016001018555821562000136579182015b828111156200013557825182559160200191906001019062000118565b5b50905062000145919062000149565b5090565b5b80821115620001645760008160009055506001016200014a565b5090565b600060028204905060018216806200018157607f821691505b602082108114156200019857620001976200019e565b5b50919050565b7f4e487b7100000000000000000000000000000000000000000000000000000000600052602260045260246000fd5b612acd80620001dd6000396000f3fe608060405234801561001057600080fd5b50600436106100ea5760003560e01c806370a082311161008c578063b88d4fde11610066578063b88d4fde1461025b578063c87b56dd14610277578063e985e9c5146102a7578063fb37e883146102d7576100ea565b806370a08231146101f157806395d89b4114610221578063a22cb4651461023f576100ea565b8063095ea7b3116100c8578063095ea7b31461016d57806323b872dd1461018957806342842e0e146101a55780636352211e146101c1576100ea565b806301ffc9a7146100ef57806306fdde031461011f578063081812fc1461013d575b600080fd5b61010960048036038101906101049190611c20565b610307565b6040516101169190612425565b60405180910390f35b6101276103e9565b6040516101349190612440565b60405180910390f35b61015760048036038101906101529190611cb3565b61047b565b60405161016491906123be565b60405180910390f35b61018760048036038101906101829190611be4565b610500565b005b6101a3600480360381019061019e9190611ade565b610618565b005b6101bf60048036038101906101ba9190611ade565b610678565b005b6101db60048036038101906101d69190611cb3565b610698565b6040516101e891906123be565b60405180910390f35b61020b60048036038101906102069190611a79565b61074a565b6040516102189190612662565b60405180910390f35b610229610802565b6040516102369190612440565b60405180910390f35b61025960048036038101906102549190611ba8565b610894565b005b61027560048036038101906102709190611b2d565b6108aa565b005b610291600480360381019061028c9190611cb3565b61090c565b60405161029e9190612440565b60405180910390f35b6102c160048036038101906102bc9190611aa2565b61091e565b6040516102ce9190612425565b60405180910390f35b6102f160048036038101906102ec9190611c72565b6109b2565b6040516102fe9190612662565b60405180910390f35b60007f80ac58cd000000000000000000000000000000000000000000000000000000007bffffffffffffffffffffffffffffffffffffffffffffffffffffffff1916827bffffffffffffffffffffffffffffffffffffffffffffffffffffffff191614806103d257507f5b5e139f000000000000000000000000000000000000000000000000000000007bffffffffffffffffffffffffffffffffffffffffffffffffffffffff1916827bffffffffffffffffffffffffffffffffffffffffffffffffffffffff1916145b806103e257506103e1826109e9565b5b9050919050565b6060600080546103f8906128c2565b80601f0160208091040260200160405190810160405280929190818152602001828054610424906128c2565b80156104715780601f1061044657610100808354040283529160200191610471565b820191906000526020600020905b81548152906001019060200180831161045457829003601f168201915b5050505050905090565b600061048682610a53565b6104c5576040517f08c379a00000000000000000000000000000000000000000000000000000000081526004016104bc906125e2565b60405180910390fd5b6004600083815260200190815260200160002060009054906101000a900473ffffffffffffffffffffffffffffffffffffffff169050919050565b600061050b82610698565b90508073ffffffffffffffffffffffffffffffffffffffff168373ffffffffffffffffffffffffffffffffffffffff16141561057c576040517f08c379a000000000000000000000000000000000000000000000000000000000815260040161057390612622565b60405180910390fd5b8073ffffffffffffffffffffffffffffffffffffffff1661059b610abf565b73ffffffffffffffffffffffffffffffffffffffff1614806105ca57506105c9816105c4610abf565b61091e565b5b610609576040517f08c379a000000000000000000000000000000000000000000000000000000000815260040161060090612522565b60405180910390fd5b6106138383610ac7565b505050565b610629610623610abf565b82610b80565b610668576040517f08c379a000000000000000000000000000000000000000000000000000000000815260040161065f90612642565b60405180910390fd5b610673838383610c5e565b505050565b610693838383604051806020016040528060008152506108aa565b505050565b6000806002600084815260200190815260200160002060009054906101000a900473ffffffffffffffffffffffffffffffffffffffff169050600073ffffffffffffffffffffffffffffffffffffffff168173ffffffffffffffffffffffffffffffffffffffff161415610741576040517f08c379a000000000000000000000000000000000000000000000000000000000815260040161073890612562565b60405180910390fd5b80915050919050565b60008073ffffffffffffffffffffffffffffffffffffffff168273ffffffffffffffffffffffffffffffffffffffff1614156107bb576040517f08c379a00000000000000000000000000000000000000000000000000000000081526004016107b290612542565b60405180910390fd5b600360008373ffffffffffffffffffffffffffffffffffffffff1673ffffffffffffffffffffffffffffffffffffffff168152602001908152602001600020549050919050565b606060018054610811906128c2565b80601f016020809104026020016040519081016040528092919081815260200182805461083d906128c2565b801561088a5780601f1061085f5761010080835404028352916020019161088a565b820191906000526020600020905b81548152906001019060200180831161086d57829003601f168201915b5050505050905090565b6108a661089f610abf565b8383610ec5565b5050565b6108bb6108b5610abf565b83610b80565b6108fa576040517f08c379a00000000000000000000000000000000000000000000000000000000081526004016108f190612642565b60405180910390fd5b61090684848484611032565b50505050565b60606109178261108e565b9050919050565b6000600560008473ffffffffffffffffffffffffffffffffffffffff1673ffffffffffffffffffffffffffffffffffffffff16815260200190815260200160002060008373ffffffffffffffffffffffffffffffffffffffff1673ffffffffffffffffffffffffffffffffffffffff16815260200190815260200160002060009054906101000a900460ff16905092915050565b60006109be60076111e0565b60006109ca60076111f6565b90506109d63382611204565b6109e081846113de565b80915050919050565b60007f01ffc9a7000000000000000000000000000000000000000000000000000000007bffffffffffffffffffffffffffffffffffffffffffffffffffffffff1916827bffffffffffffffffffffffffffffffffffffffffffffffffffffffff1916149050919050565b60008073ffffffffffffffffffffffffffffffffffffffff166002600084815260200190815260200160002060009054906101000a900473ffffffffffffffffffffffffffffffffffffffff1673ffffffffffffffffffffffffffffffffffffffff1614159050919050565b600033905090565b816004600083815260200190815260200160002060006101000a81548173ffffffffffffffffffffffffffffffffffffffff021916908373ffffffffffffffffffffffffffffffffffffffff160217905550808273ffffffffffffffffffffffffffffffffffffffff16610b3a83610698565b73ffffffffffffffffffffffffffffffffffffffff167f8c5be1e5ebec7d5bd14f71427d1e84f3dd0314c0f7b2291e5b200ac8c7c3b92560405160405180910390a45050565b6000610b8b82610a53565b610bca576040517f08c379a0000000000000000000000000000000000000000000000000000000008152600401610bc190612502565b60405180910390fd5b6000610bd583610698565b90508073ffffffffffffffffffffffffffffffffffffffff168473ffffffffffffffffffffffffffffffffffffffff161480610c4457508373ffffffffffffffffffffffffffffffffffffffff16610c2c8461047b565b73ffffffffffffffffffffffffffffffffffffffff16145b80610c555750610c54818561091e565b5b91505092915050565b8273ffffffffffffffffffffffffffffffffffffffff16610c7e82610698565b73ffffffffffffffffffffffffffffffffffffffff1614610cd4576040517f08c379a0000000000000000000000000000000000000000000000000000000008152600401610ccb90612482565b60405180910390fd5b600073ffffffffffffffffffffffffffffffffffffffff168273ffffffffffffffffffffffffffffffffffffffff161415610d44576040517f08c379a0000000000000000000000000000000000000000000000000000000008152600401610d3b906124c2565b60405180910390fd5b610d4f838383611452565b610d5a600082610ac7565b6001600360008573ffffffffffffffffffffffffffffffffffffffff1673ffffffffffffffffffffffffffffffffffffffff1681526020019081526020016000206000828254610daa91906127d8565b925050819055506001600360008473ffffffffffffffffffffffffffffffffffffffff1673ffffffffffffffffffffffffffffffffffffffff1681526020019081526020016000206000828254610e019190612751565b92505081905550816002600083815260200190815260200160002060006101000a81548173ffffffffffffffffffffffffffffffffffffffff021916908373ffffffffffffffffffffffffffffffffffffffff160217905550808273ffffffffffffffffffffffffffffffffffffffff168473ffffffffffffffffffffffffffffffffffffffff167fddf252ad1be2c89b69c2b068fc378daa952ba7f163c4a11628f55a4df523b3ef60405160405180910390a4610ec0838383611457565b505050565b8173ffffffffffffffffffffffffffffffffffffffff168373ffffffffffffffffffffffffffffffffffffffff161415610f34576040517f08c379a0000000000000000000000000000000000000000000000000000000008152600401610f2b906124e2565b60405180910390fd5b80600560008573ffffffffffffffffffffffffffffffffffffffff1673ffffffffffffffffffffffffffffffffffffffff16815260200190815260200160002060008473ffffffffffffffffffffffffffffffffffffffff1673ffffffffffffffffffffffffffffffffffffffff16815260200190815260200160002060006101000a81548160ff0219169083151502179055508173ffffffffffffffffffffffffffffffffffffffff168373ffffffffffffffffffffffffffffffffffffffff167f17307eab39ab6107e8899845ad3d59bd9653f200f220920489ca2b5937696c31836040516110259190612425565b60405180910390a3505050565b61103d848484610c5e565b6110498484848461145c565b611088576040517f08c379a000000000000000000000000000000000000000000000000000000000815260040161107f90612462565b60405180910390fd5b50505050565b606061109982610a53565b6110d8576040517f08c379a00000000000000000000000000000000000000000000000000000000081526004016110cf906125c2565b60405180910390fd5b60006006600084815260200190815260200160002080546110f8906128c2565b80601f0160208091040260200160405190810160405280929190818152602001828054611124906128c2565b80156111715780601f1061114657610100808354040283529160200191611171565b820191906000526020600020905b81548152906001019060200180831161115457829003601f168201915b5050505050905060006111826115f3565b90506000815114156111985781925050506111db565b6000825111156111cd5780826040516020016111b592919061239a565b604051602081830303815290604052925050506111db565b6111d68461160a565b925050505b919050565b6001816000016000828254019250508190555050565b600081600001549050919050565b600073ffffffffffffffffffffffffffffffffffffffff168273ffffffffffffffffffffffffffffffffffffffff161415611274576040517f08c379a000000000000000000000000000000000000000000000000000000000815260040161126b906125a2565b60405180910390fd5b61127d81610a53565b156112bd576040517f08c379a00000000000000000000000000000000000000000000000000000000081526004016112b4906124a2565b60405180910390fd5b6112c960008383611452565b6001600360008473ffffffffffffffffffffffffffffffffffffffff1673ffffffffffffffffffffffffffffffffffffffff16815260200190815260200160002060008282546113199190612751565b92505081905550816002600083815260200190815260200160002060006101000a81548173ffffffffffffffffffffffffffffffffffffffff021916908373ffffffffffffffffffffffffffffffffffffffff160217905550808273ffffffffffffffffffffffffffffffffffffffff16600073ffffffffffffffffffffffffffffffffffffffff167fddf252ad1be2c89b69c2b068fc378daa952ba7f163c4a11628f55a4df523b3ef60405160405180910390a46113da60008383611457565b5050565b6113e782610a53565b611426576040517f08c379a000000000000000000000000000000000000000000000000000000000815260040161141d90612582565b60405180910390fd5b8060066000848152602001908152602001600020908051906020019061144d92919061189d565b505050565b505050565b505050565b600061147d8473ffffffffffffffffffffffffffffffffffffffff166116b1565b156115e6578373ffffffffffffffffffffffffffffffffffffffff1663150b7a026114a6610abf565b8786866040518563ffffffff1660e01b81526004016114c894939291906123d9565b602060405180830381600087803b1580156114e257600080fd5b505af192505050801561151357506040513d601f19601f820116820180604052508101906115109190611c49565b60015b611596573d8060008114611543576040519150601f19603f3d011682016040523d82523d6000602084013e611548565b606091505b5060008151141561158e576040517f08c379a000000000000000000000000000000000000000000000000000000000815260040161158590612462565b60405180910390fd5b805181602001fd5b63150b7a0260e01b7bffffffffffffffffffffffffffffffffffffffffffffffffffffffff1916817bffffffffffffffffffffffffffffffffffffffffffffffffffffffff1916149150506115eb565b600190505b949350505050565b606060405180602001604052806000815250905090565b606061161582610a53565b611654576040517f08c379a000000000000000000000000000000000000000000000000000000000815260040161164b90612602565b60405180910390fd5b600061165e6115f3565b9050600081511161167e57604051806020016040528060008152506116a9565b80611688846116f0565b60405160200161169992919061239a565b6040516020818303038152906040525b915050919050565b6000808273ffffffffffffffffffffffffffffffffffffffff16803b806020016040519081016040528181526000908060200190933c51119050919050565b60606000821415611738576040518060400160405280600181526020017f30000000000000000000000000000000000000000000000000000000000000008152509050611898565b600082905060005b6000821461176a578080611753906128f4565b915050600a8261176391906127a7565b9150611740565b60008167ffffffffffffffff8111156117ac577f4e487b7100000000000000000000000000000000000000000000000000000000600052604160045260246000fd5b6040519080825280601f01601f1916602001820160405280156117de5781602001600182028036833780820191505090505b5090505b60008514611891576001826117f791906127d8565b9150600a85611806919061293d565b60306118129190612751565b60f81b81838151811061184e577f4e487b7100000000000000000000000000000000000000000000000000000000600052603260045260246000fd5b60200101907effffffffffffffffffffffffffffffffffffffffffffffffffffffffffffff1916908160001a905350600a8561188a91906127a7565b94506117e2565b8093505050505b919050565b8280546118a9906128c2565b90600052602060002090601f0160209004810192826118cb5760008555611912565b82601f106118e457805160ff1916838001178555611912565b82800160010185558215611912579182015b828111156119115782518255916020019190600101906118f6565b5b50905061191f9190611923565b5090565b5b8082111561193c576000816000905550600101611924565b5090565b600061195361194e846126ae565b61267d565b90508281526020810184848401111561196b57600080fd5b611976848285612880565b509392505050565b600061199161198c846126de565b61267d565b9050828152602081018484840111156119a957600080fd5b6119b4848285612880565b509392505050565b6000813590506119cb81612a3b565b92915050565b6000813590506119e081612a52565b92915050565b6000813590506119f581612a69565b92915050565b600081519050611a0a81612a69565b92915050565b600082601f830112611a2157600080fd5b8135611a31848260208601611940565b91505092915050565b600082601f830112611a4b57600080fd5b8135611a5b84826020860161197e565b91505092915050565b600081359050611a7381612a80565b92915050565b600060208284031215611a8b57600080fd5b6000611a99848285016119bc565b91505092915050565b60008060408385031215611ab557600080fd5b6000611ac3858286016119bc565b9250506020611ad4858286016119bc565b9150509250929050565b600080600060608486031215611af357600080fd5b6000611b01868287016119bc565b9350506020611b12868287016119bc565b9250506040611b2386828701611a64565b9150509250925092565b60008060008060808587031215611b4357600080fd5b6000611b51878288016119bc565b9450506020611b62878288016119bc565b9350506040611b7387828801611a64565b925050606085013567ffffffffffffffff811115611b9057600080fd5b611b9c87828801611a10565b91505092959194509250565b60008060408385031215611bbb57600080fd5b6000611bc9858286016119bc565b9250506020611bda858286016119d1565b9150509250929050565b60008060408385031215611bf757600080fd5b6000611c05858286016119bc565b9250506020611c1685828601611a64565b9150509250929050565b600060208284031215611c3257600080fd5b6000611c40848285016119e6565b91505092915050565b600060208284031215611c5b57600080fd5b6000611c69848285016119fb565b91505092915050565b600060208284031215611c8457600080fd5b600082013567ffffffffffffffff811115611c9e57600080fd5b611caa84828501611a3a565b91505092915050565b600060208284031215611cc557600080fd5b6000611cd384828501611a64565b91505092915050565b611ce58161280c565b82525050565b611cf48161281e565b82525050565b6000611d058261270e565b611d0f8185612724565b9350611d1f81856020860161288f565b611d2881612a2a565b840191505092915050565b6000611d3e82612719565b611d488185612735565b9350611d5881856020860161288f565b611d6181612a2a565b840191505092915050565b6000611d7782612719565b611d818185612746565b9350611d9181856020860161288f565b80840191505092915050565b6000611daa603283612735565b91507f4552433732313a207472616e7366657220746f206e6f6e20455243373231526560008301527f63656976657220696d706c656d656e74657200000000000000000000000000006020830152604082019050919050565b6000611e10602583612735565b91507f4552433732313a207472616e736665722066726f6d20696e636f72726563742060008301527f6f776e65720000000000000000000000000000000000000000000000000000006020830152604082019050919050565b6000611e76601c83612735565b91507f4552433732313a20746f6b656e20616c7265616479206d696e746564000000006000830152602082019050919050565b6000611eb6602483612735565b91507f4552433732313a207472616e7366657220746f20746865207a65726f2061646460008301527f72657373000000000000000000000000000000000000000000000000000000006020830152604082019050919050565b6000611f1c601983612735565b91507f4552433732313a20617070726f766520746f2063616c6c6572000000000000006000830152602082019050919050565b6000611f5c602c83612735565b91507f4552433732313a206f70657261746f7220717565727920666f72206e6f6e657860008301527f697374656e7420746f6b656e00000000000000000000000000000000000000006020830152604082019050919050565b6000611fc2603883612735565b91507f4552433732313a20617070726f76652063616c6c6572206973206e6f74206f7760008301527f6e6572206e6f7220617070726f76656420666f7220616c6c00000000000000006020830152604082019050919050565b6000612028602a83612735565b91507f4552433732313a2062616c616e636520717565727920666f7220746865207a6560008301527f726f2061646472657373000000000000000000000000000000000000000000006020830152604082019050919050565b600061208e602983612735565b91507f4552433732313a206f776e657220717565727920666f72206e6f6e657869737460008301527f656e7420746f6b656e00000000000000000000000000000000000000000000006020830152604082019050919050565b60006120f4602e83612735565b91507f45524337323155524953746f726167653a2055524920736574206f66206e6f6e60008301527f6578697374656e7420746f6b656e0000000000000000000000000000000000006020830152604082019050919050565b600061215a602083612735565b91507f4552433732313a206d696e7420746f20746865207a65726f20616464726573736000830152602082019050919050565b600061219a603183612735565b91507f45524337323155524953746f726167653a2055524920717565727920666f722060008301527f6e6f6e6578697374656e7420746f6b656e0000000000000000000000000000006020830152604082019050919050565b6000612200602c83612735565b91507f4552433732313a20617070726f76656420717565727920666f72206e6f6e657860008301527f697374656e7420746f6b656e00000000000000000000000000000000000000006020830152604082019050919050565b6000612266602f83612735565b91507f4552433732314d657461646174613a2055524920717565727920666f72206e6f60008301527f6e6578697374656e7420746f6b656e00000000000000000000000000000000006020830152604082019050919050565b60006122cc602183612735565b91507f4552433732313a20617070726f76616c20746f2063757272656e74206f776e6560008301527f72000000000000000000000000000000000000000000000000000000000000006020830152604082019050919050565b6000612332603183612735565b91507f4552433732313a207472616e736665722063616c6c6572206973206e6f74206f60008301527f776e6572206e6f7220617070726f7665640000000000000000000000000000006020830152604082019050919050565b61239481612876565b82525050565b60006123a68285611d6c565b91506123b28284611d6c565b91508190509392505050565b60006020820190506123d36000830184611cdc565b92915050565b60006080820190506123ee6000830187611cdc565b6123fb6020830186611cdc565b612408604083018561238b565b818103606083015261241a8184611cfa565b905095945050505050565b600060208201905061243a6000830184611ceb565b92915050565b6000602082019050818103600083015261245a8184611d33565b905092915050565b6000602082019050818103600083015261247b81611d9d565b9050919050565b6000602082019050818103600083015261249b81611e03565b9050919050565b600060208201905081810360008301526124bb81611e69565b9050919050565b600060208201905081810360008301526124db81611ea9565b9050919050565b600060208201905081810360008301526124fb81611f0f565b9050919050565b6000602082019050818103600083015261251b81611f4f565b9050919050565b6000602082019050818103600083015261253b81611fb5565b9050919050565b6000602082019050818103600083015261255b8161201b565b9050919050565b6000602082019050818103600083015261257b81612081565b9050919050565b6000602082019050818103600083015261259b816120e7565b9050919050565b600060208201905081810360008301526125bb8161214d565b9050919050565b600060208201905081810360008301526125db8161218d565b9050919050565b600060208201905081810360008301526125fb816121f3565b9050919050565b6000602082019050818103600083015261261b81612259565b9050919050565b6000602082019050818103600083015261263b816122bf565b9050919050565b6000602082019050818103600083015261265b81612325565b9050919050565b6000602082019050612677600083018461238b565b92915050565b6000604051905081810181811067ffffffffffffffff821117156126a4576126a36129fb565b5b8060405250919050565b600067ffffffffffffffff8211156126c9576126c86129fb565b5b601f19601f8301169050602081019050919050565b600067ffffffffffffffff8211156126f9576126f86129fb565b5b601f19601f8301169050602081019050919050565b600081519050919050565b600081519050919050565b600082825260208201905092915050565b600082825260208201905092915050565b600081905092915050565b600061275c82612876565b915061276783612876565b9250827fffffffffffffffffffffffffffffffffffffffffffffffffffffffffffffffff0382111561279c5761279b61296e565b5b828201905092915050565b60006127b282612876565b91506127bd83612876565b9250826127cd576127cc61299d565b5b828204905092915050565b60006127e382612876565b91506127ee83612876565b9250828210156128015761280061296e565b5b828203905092915050565b600061281782612856565b9050919050565b60008115159050919050565b60007fffffffff0000000000000000000000000000000000000000000000000000000082169050919050565b600073ffffffffffffffffffffffffffffffffffffffff82169050919050565b6000819050919050565b82818337600083830152505050565b60005b838110156128ad578082015181840152602081019050612892565b838111156128bc576000848401525b50505050565b600060028204905060018216806128da57607f821691505b602082108114156128ee576128ed6129cc565b5b50919050565b60006128ff82612876565b91507fffffffffffffffffffffffffffffffffffffffffffffffffffffffffffffffff8214156129325761293161296e565b5b600182019050919050565b600061294882612876565b915061295383612876565b9250826129635761296261299d565b5b828206905092915050565b7f4e487b7100000000000000000000000000000000000000000000000000000000600052601160045260246000fd5b7f4e487b7100000000000000000000000000000000000000000000000000000000600052601260045260246000fd5b7f4e487b7100000000000000000000000000000000000000000000000000000000600052602260045260246000fd5b7f4e487b7100000000000000000000000000000000000000000000000000000000600052604160045260246000fd5b6000601f19601f8301169050919050565b612a448161280c565b8114612a4f57600080fd5b50565b612a5b8161281e565b8114612a6657600080fd5b50565b612a728161282a565b8114612a7d57600080fd5b50565b612a8981612876565b8114612a9457600080fd5b5056fea2646970667358221220368d5a8ab395b85c833d79411d9e761967635a9e8bf0d5b3bada141b30dba5c464736f6c63430008000033",
  "immutableReferences": {},
  "source": "// SPDX-License-Identifier: MIT\npragma solidity ^0.8.0;\n\nimport \"@openzeppelin/contracts/token/ERC721/ERC721.sol\";\nimport \"@openzeppelin/contracts/token/ERC721/extensions/ERC721URIStorage.sol\";\nimport \"@openzeppelin/contracts/token/ERC721/extensions/ERC721Enumerable.sol\";\nimport \"@openzeppelin/contracts/utils/Counters.sol\";\n\ncontract NFTContract is ERC721, ERC721URIStorage {\n    using Counters for Counters.Counter;\n    Counters.Counter private _tokenIds;\n\n    constructor() ERC721(\"NFTContract\", \"NFTC\") {}\n\n    function mintNFT(string memory tokenURI) public returns (uint256) {\n        _tokenIds.increment();\n        uint256 newItemId = _tokenIds.current();\n        _mint(msg.sender, newItemId);\n        _setTokenURI(newItemId, tokenURI);\n        return newItemId;\n    }\n\n    function tokenURI(\n        uint256 tokenId\n    ) public view override(ERC721, ERC721URIStorage) returns (string memory) {\n        return super.tokenURI(tokenId);\n    }\n\n    function _burn(\n        uint256 tokenId\n    ) internal override(ERC721, ERC721URIStorage) {\n        super._burn(tokenId);\n    }\n}\n",
  "sourcePath": "/home/sangdd/Project-App-SendMail/mern-app/client/contracts/NFTContract.sol",
  "compiler": {
    "name": "solc",
    "version": "0.8.0+commit.c7dfd78e.Emscripten.clang"
  },
  "schemaVersion": "3.4.16",
  "updatedAt": "2023-12-10T03:10:19.611Z",
  "networkType": "ethereum",
  "devdoc": {
    "kind": "dev",
    "methods": {
      "approve(address,uint256)": {
        "details": "See {IERC721-approve}."
      },
      "balanceOf(address)": {
        "details": "See {IERC721-balanceOf}."
      },
      "getApproved(uint256)": {
        "details": "See {IERC721-getApproved}."
      },
      "isApprovedForAll(address,address)": {
        "details": "See {IERC721-isApprovedForAll}."
      },
      "name()": {
        "details": "See {IERC721Metadata-name}."
      },
      "ownerOf(uint256)": {
        "details": "See {IERC721-ownerOf}."
      },
      "safeTransferFrom(address,address,uint256)": {
        "details": "See {IERC721-safeTransferFrom}."
      },
      "safeTransferFrom(address,address,uint256,bytes)": {
        "details": "See {IERC721-safeTransferFrom}."
      },
      "setApprovalForAll(address,bool)": {
        "details": "See {IERC721-setApprovalForAll}."
      },
      "supportsInterface(bytes4)": {
        "details": "See {IERC165-supportsInterface}."
      },
      "symbol()": {
        "details": "See {IERC721Metadata-symbol}."
      },
      "transferFrom(address,address,uint256)": {
        "details": "See {IERC721-transferFrom}."
      }
    },
    "version": 1
  },
  "userdoc": {
    "kind": "user",
    "methods": {},
    "version": 1
  }
}